{
  "contractName": "Customer",
  "abi": [
    {
      "inputs": [],
      "payable": false,
      "stateMutability": "nonpayable",
      "type": "constructor"
    },
    {
      "anonymous": false,
      "inputs": [
        {
          "indexed": false,
          "internalType": "uint256",
          "name": "idOrder",
          "type": "uint256"
        }
      ],
      "name": "OrderRaisedOrUpdated",
      "type": "event"
    },
    {
      "constant": false,
      "inputs": [
        {
          "internalType": "bytes32",
          "name": "itemName",
          "type": "bytes32"
        },
        {
          "internalType": "uint256",
          "name": "quantity",
          "type": "uint256"
        }
      ],
      "name": "purchaseItem",
      "outputs": [],
      "payable": false,
      "stateMutability": "nonpayable",
      "type": "function"
    },
    {
      "constant": false,
      "inputs": [
        {
          "internalType": "uint256",
          "name": "idOrder",
          "type": "uint256"
        }
      ],
      "name": "recieveItem",
      "outputs": [],
      "payable": false,
      "stateMutability": "nonpayable",
      "type": "function"
    },
    {
      "constant": true,
      "inputs": [
        {
          "internalType": "uint256",
          "name": "idOrder",
          "type": "uint256"
        }
      ],
      "name": "getOrderDetails",
      "outputs": [
        {
          "internalType": "bytes32",
          "name": "",
          "type": "bytes32"
        },
        {
          "internalType": "uint256",
          "name": "",
          "type": "uint256"
        },
        {
          "internalType": "bool",
          "name": "",
          "type": "bool"
        }
      ],
      "payable": false,
      "stateMutability": "view",
      "type": "function"
    },
    {
      "constant": true,
      "inputs": [],
      "name": "getNumberOfItemsPurchased",
      "outputs": [
        {
          "internalType": "uint256",
          "name": "",
          "type": "uint256"
        }
      ],
      "payable": false,
      "stateMutability": "view",
      "type": "function"
    },
    {
      "constant": true,
      "inputs": [],
      "name": "getNumberOfItemsReceived",
      "outputs": [
        {
          "internalType": "uint256",
          "name": "",
          "type": "uint256"
        }
      ],
      "payable": false,
      "stateMutability": "view",
      "type": "function"
    }
  ],
  "bytecode": "0x608060405234801561001057600080fd5b506040518060400160405280600181526020017f4a6f686e20536e6f770000000000000000000000000000000000000000000000815250600260008081526020019081526020016000206000820151816000015560208201518160010155905050610352806100806000396000f3fe608060405234801561001057600080fd5b50600436106100575760003560e01c80630657de331461005c57806377c3d81b1461008a57806394193dd2146100a8578063d103b02c146100e0578063ec7dd7bb146100fe575b600080fd5b6100886004803603602081101561007257600080fd5b8101908080359060200190929190505050610152565b005b6100926101cd565b6040518082815260200191505060405180910390f35b6100de600480360360408110156100be57600080fd5b8101908080359060200190929190803590602001909291905050506101d7565b005b6100e86102b0565b6040518082815260200191505060405180910390f35b61012a6004803603602081101561011457600080fd5b81019080803590602001909291905050506102b9565b6040518084815260200183815260200182151515158152602001935050505060405180910390f35b60016000815480929190600101919050555060016003600083815260200190815260200160002060040160006101000a81548160ff0219169083151502179055507ffd4b9f33f750059f7f0fea80cc0091c7788f7b097feddbd26b1e87482cad21f3816040518082815260200191505060405180910390a150565b6000600154905090565b60008060008154809291906001019190505590506040518060a001604052808281526020016000815260200184815260200183815260200160001515815250600360008381526020019081526020016000206000820151816000015560208201518160010155604082015181600201556060820151816003015560808201518160040160006101000a81548160ff0219169083151502179055509050507ffd4b9f33f750059f7f0fea80cc0091c7788f7b097feddbd26b1e87482cad21f3816040518082815260200191505060405180910390a1505050565b60008054905090565b6000806000600360008581526020019081526020016000206002015460036000868152602001908152602001600020600301546003600087815260200190815260200160002060040160009054906101000a900460ff16925092509250919390925056fea265627a7a723158207fbb91d4198252004df9ff62e7d185f98b2322a3ade25236459531233c0ca78364736f6c63430005100032",
  "source": "\n\npragma solidity >=0.4.17;\n// We have to specify what version of compiler this code will compile with\n\ncontract Customer {\n\n  /* Events */\n  event OrderRaisedOrUpdated(uint idOrder);\n\n  struct AvailableCustomer {\n    uint idCustomer;\n    bytes32 customerName;\n  }\n\n  struct Orderlog {\n    uint idOrder;\n    uint idCustomer;\n    bytes32 itemName;\n    uint quantity;\n    bool status;\n  }\n\n  // STATE Variables.\n  uint numberOfItemsPurchased;\n  uint numberOfItemsReceived;\n\n  // Mappings \n  mapping (uint => AvailableCustomer) customers;\n  mapping (uint => Orderlog) orderLogs;\n\n  /* Constructor */\n  constructor() public {\n      /* For the case of demo, adding a customer in constructor. You can take this idea and extend the contract to contain addCustomer section and hence maintain customerDB in the Blockchain! */\n      customers[0] = AvailableCustomer(1, \"John Snow\");\n  }\n\n  /* TRANSACTIONS */\n  function purchaseItem(bytes32 itemName, uint quantity) public {\n    uint idOrder = numberOfItemsPurchased++;\n    orderLogs[idOrder] = Orderlog(idOrder, 0, itemName, quantity, false);\n    emit OrderRaisedOrUpdated(idOrder);\n  }\n\n  function recieveItem(uint idOrder) public {\n      numberOfItemsReceived++;\n      orderLogs[idOrder].status = true;\n      emit OrderRaisedOrUpdated(idOrder);\n  }\n\n  /* GETTERS */\n  function getOrderDetails(uint idOrder) view public returns (bytes32, uint, bool){\n    /*returns itemName, quantity & completionStatus*/\n    return (orderLogs[idOrder].itemName, orderLogs[idOrder].quantity, orderLogs[idOrder].status);\n  }\n\n  function getNumberOfItemsPurchased() view public returns (uint) {\n    return numberOfItemsPurchased;\n  }\n\n  function getNumberOfItemsReceived() view public returns (uint) {\n    return numberOfItemsReceived;\n  }\n\n}\n\n\n\n",
  "sourcePath": "F:/Blockchain/drizzle/contracts/Customer.sol",
  "compiler": {
    "name": "solc",
    "version": "0.5.16+commit.9c3226ce.Emscripten.clang"
  },
  "schemaVersion": "3.3.1",
  "updatedAt": "2020-10-27T16:23:37.758Z",
  "networkType": "ethereum",
  "devdoc": {
    "methods": {}
  },
  "userdoc": {
    "methods": {}
  }
}