{
  "contractName": "Supplier",
  "abi": [
    {
      "anonymous": false,
      "inputs": [
        {
          "indexed": false,
          "internalType": "uint256",
          "name": "idItem",
          "type": "uint256"
        }
      ],
      "name": "ItemAdded",
      "type": "event"
    },
    {
      "anonymous": false,
      "inputs": [
        {
          "indexed": false,
          "internalType": "uint256",
          "name": "idOfCustomer",
          "type": "uint256"
        },
        {
          "indexed": false,
          "internalType": "uint256",
          "name": "idOrder",
          "type": "uint256"
        },
        {
          "indexed": false,
          "internalType": "bool",
          "name": "status",
          "type": "bool"
        }
      ],
      "name": "ProcessAnOrder",
      "type": "event"
    },
    {
      "constant": false,
      "inputs": [
        {
          "internalType": "bytes",
          "name": "itemName",
          "type": "bytes"
        },
        {
          "internalType": "uint256",
          "name": "price",
          "type": "uint256"
        }
      ],
      "name": "addItem",
      "outputs": [],
      "payable": false,
      "stateMutability": "nonpayable",
      "type": "function"
    },
    {
      "constant": false,
      "inputs": [
        {
          "internalType": "uint256",
          "name": "idOrder",
          "type": "uint256"
        },
        {
          "internalType": "uint256",
          "name": "idCustomer",
          "type": "uint256"
        }
      ],
      "name": "processOrder",
      "outputs": [],
      "payable": false,
      "stateMutability": "nonpayable",
      "type": "function"
    },
    {
      "constant": true,
      "inputs": [
        {
          "internalType": "uint256",
          "name": "idItem",
          "type": "uint256"
        }
      ],
      "name": "getItem",
      "outputs": [
        {
          "internalType": "bytes",
          "name": "",
          "type": "bytes"
        },
        {
          "internalType": "uint256",
          "name": "",
          "type": "uint256"
        }
      ],
      "payable": false,
      "stateMutability": "view",
      "type": "function"
    },
    {
      "constant": true,
      "inputs": [
        {
          "internalType": "uint256",
          "name": "idOrder",
          "type": "uint256"
        }
      ],
      "name": "getStatus",
      "outputs": [
        {
          "internalType": "bool",
          "name": "",
          "type": "bool"
        }
      ],
      "payable": false,
      "stateMutability": "view",
      "type": "function"
    },
    {
      "constant": true,
      "inputs": [],
      "name": "getTotalNumberOfAvailableItems",
      "outputs": [
        {
          "internalType": "uint256",
          "name": "",
          "type": "uint256"
        }
      ],
      "payable": false,
      "stateMutability": "view",
      "type": "function"
    },
    {
      "constant": true,
      "inputs": [],
      "name": "getTotalNumberOfOrdersProcessed",
      "outputs": [
        {
          "internalType": "uint256",
          "name": "",
          "type": "uint256"
        }
      ],
      "payable": false,
      "stateMutability": "view",
      "type": "function"
    }
  ],
  "bytecode": "0x608060405234801561001057600080fd5b50610600806100206000396000f3fe608060405234801561001057600080fd5b50600436106100625760003560e01c80633129e773146100675780633946abfd146101155780635c622a0e14610133578063804544c414610179578063941e53a7146101b1578063a74d89e8146101cf575b600080fd5b6100936004803603602081101561007d57600080fd5b8101908080359060200190929190505050610294565b6040518080602001838152602001828103825284818151815260200191508051906020019080838360005b838110156100d95780820151818401526020810190506100be565b50505050905090810190601f1680156101065780820380516001836020036101000a031916815260200191505b50935050505060405180910390f35b61011d61036a565b6040518082815260200191505060405180910390f35b61015f6004803603602081101561014957600080fd5b8101908080359060200190929190505050610374565b604051808215151515815260200191505060405180910390f35b6101af6004803603604081101561018f57600080fd5b8101908080359060200190929190803590602001909291905050506103a1565b005b6101b961046b565b6040518082815260200191505060405180910390f35b610292600480360360408110156101e557600080fd5b810190808035906020019064010000000081111561020257600080fd5b82018360208201111561021457600080fd5b8035906020019184600183028401116401000000008311171561023657600080fd5b91908080601f016020809104026020016040519081016040528093929190818152602001838380828437600081840152601f19601f82011690508083019250505050505050919291929080359060200190929190505050610474565b005b60606000600260008481526020019081526020016000206001016002600085815260200190815260200160002060020154818054600181600116156101000203166002900480601f01602080910402602001604051908101604052809291908181526020018280546001816001161561010002031660029004801561035a5780601f1061032f5761010080835404028352916020019161035a565b820191906000526020600020905b81548152906001019060200180831161033d57829003601f168201915b5050505050915091509150915091565b6000600154905090565b60006003600083815260200190815260200160002060020160009054906101000a900460ff169050919050565b60405180606001604052808281526020018381526020016001151581525060036000848152602001908152602001600020600082015181600001556020820151816001015560408201518160020160006101000a81548160ff0219169083151502179055509050506001600081548092919060010191905055507f13c5c248f81aca9d8fa3643449bd2debad3b6ec68931a70443181d3e60352ee7818360016040518084815260200183815260200182151515158152602001935050505060405180910390a15050565b60008054905090565b6000806000815480929190600101919050559050604051806060016040528082815260200184815260200183815250600260008381526020019081526020016000206000820151816000015560208201518160010190805190602001906104dc929190610526565b50604082015181600201559050507f186760a37e06b130959978c68b5c592841caf4f64de1dc960b2c54cf454ca9dd816040518082815260200191505060405180910390a1505050565b828054600181600116156101000203166002900490600052602060002090601f016020900481019282601f1061056757805160ff1916838001178555610595565b82800160010185558215610595579182015b82811115610594578251825591602001919060010190610579565b5b5090506105a291906105a6565b5090565b6105c891905b808211156105c45760008160009055506001016105ac565b5090565b9056fea265627a7a72315820d5a994bc774e38dd924c3b2234f9bbdb459326b32a87f22ef74284958654ce2864736f6c63430005100032",
  "source": "\npragma solidity >=0.4.17;\n// We have to specify what version of compiler this code will compile with\n\ncontract Supplier {\n\n  /* Events */\n  event ItemAdded(uint idItem);\n  event ProcessAnOrder(uint idOfCustomer, uint idOrder, bool status);\n\n  struct Item {\n    uint idItem;\n    bytes itemName;\n    uint price;\n  }\n\n  struct Orderlog {\n    uint idOfCustomer;\n    uint idOrder; \n    bool status;\n  }\n\n  // STATE Variables.\n  uint numberOfItemsAvailableForSale;\n  uint numberOfOrdersProcessed;\n\n  // Mappings \n  mapping (uint => Item) items;\n  mapping (uint => Orderlog) orderLogs;\n\n\n  /* TRANSACTIONS */\n  function addItem(bytes memory itemName, uint price) public {\n    uint idItem = numberOfItemsAvailableForSale++;\n    items[idItem] = Item(idItem, itemName, price);\n    emit ItemAdded(idItem);\n  }\n\n  function processOrder(uint idOrder, uint idCustomer) public {\n    orderLogs[idOrder] = Orderlog(idCustomer, idOrder, true);\n    numberOfOrdersProcessed ++;\n    emit ProcessAnOrder(idCustomer, idOrder, true);\n  }\n\n  /* GETTERS */\n  function getItem(uint idItem) view public returns (bytes memory, uint){\n    /*returns itemName and its price*/\n    return (items[idItem].itemName, items[idItem].price);\n  }\n\n  function getStatus(uint idOrder) view public returns (bool) {\n    /*returns completion status*/\n    return (orderLogs[idOrder].status);\n  }\n\n  function getTotalNumberOfAvailableItems() view public returns (uint) {\n    return numberOfItemsAvailableForSale;\n  }\n\n  function getTotalNumberOfOrdersProcessed() view public returns (uint){\n    return numberOfOrdersProcessed;\n  }\n\n}",
  "sourcePath": "F:/Blockchain/drizzle/contracts/Supplier.sol",
  "compiler": {
    "name": "solc",
    "version": "0.5.16+commit.9c3226ce.Emscripten.clang"
  },
  "schemaVersion": "3.3.1",
  "updatedAt": "2020-10-27T16:23:37.754Z",
  "networkType": "ethereum",
  "devdoc": {
    "methods": {}
  },
  "userdoc": {
    "methods": {}
  }
}